:020000040800F2
:10000000C806002089010008B91C0008E514000892
:10001000B51C000845020008CD1C000800000000C7
:10002000000000000000000000000000C11C0008EB
:100030004902000800000000BD1C0008C51C0008A3
:10004000A3010008A3010008A3010008A301000800
:10005000A3010008A3010008A3010008A3010008F0
:10006000A3010008A3010008A3010008A3010008E0
:10007000A3010008A3010008A3010008A3010008D0
:10008000A3010008A3010008A3010008A3010008C0
:10009000A3010008A3010008A3010008A3010008B0
:1000A000A3010008A3010008A3010008A3010008A0
:1000B000A3010008A3010008A3010008E914000837
:1000C000A3010008A3010008A3010008A301000880
:1000D000A3010008A3010008A3010008A301000870
:1000E000A3010008A3010008A301000800F002F822
:1000F00000F03AF80AA090E8000C82448344AAF188
:100100000107DA4501D100F02FF8AFF2090EBAE885
:100110000F0013F0010F18BFFB1A43F0010318473B
:10012000441C0000641C0000103A24BF78C878C149
:10013000FAD8520724BF30C830C144BF04680C60ED
:10014000704700000023002400250026103A28BF35
:1001500078C1FBD8520728BF30C148BF0B60704739
:100160001FB51FBD10B510BD00F031F81146FFF7E7
:10017000F7FF01F0ADFD00F04FF803B4FFF7F2FF19
:1001800003BC00F057F800000948804709480047C1
:10019000FEE7FEE7FEE7FEE7FEE7FEE7FEE7FEE737
:1001A000FEE7FEE704480549054A064B7047000094
:1001B000C91C0008ED000008C8000020C806002087
:1001C000C8020020C802002070477047704775467B
:1001D00000F02CF8AE4605006946534620F00700B3
:1001E000854618B020B5FFF7DDFFBDE820404FF091
:1001F00000064FF000074FF000084FF0000BAC4630
:10020000ACE8C009ACE8C009ACE8C009ACE8C0097A
:1002100021F007018D46704710B50446AFF300800A
:100220002046BDE81040FFF7A8BF00000048704717
:100230001000002001491820ABBEFEE72600020096
:1002400070470000FEE7000070470000EFF31080E9
:1002500072B600BFFEE7000080B590F821100229B9
:1002600024D10268116821F00E0111602F2113685A
:10027000C4F202018A4240F20401C4F2020123F0F6
:100280000103136016DD3023C4F202039A421DD02D
:100290004423C4F202039A421CD05823C4F202033E
:1002A0009A421DD14FF4803322E000BF04218163C4
:1002B000012080BD0823C4F202039A420ED01C2301
:1002C000C4F202039A420BD1102311E04FF4807361
:1002D0000EE000BF4FF480530AE000BF012307E0A7
:1002E00001F1680C4FF08073624508BF4FF4801332
:1002F0000B60012180F82110426B002180F8201052
:100300000AB190470021084680BD000090F8210006
:10031000704700002DE9F04F82B041F20042C4F274
:1003200001020E680423904208BF0323002E0093AD
:1003300000F0F68040F2004C4FF6FF7E0022C4F23F
:10034000010C0124C1F2100E4FF0000A4FF0000919
:1003500047E000BF012502F00C040F27A7402BEA5D
:10036000070705FA04F43C4343F82640D1F804B0EB
:1003700040F20C455FEACB23DCF8083054BF23EA97
:10038000080343EA0803C4F20105CCF808302B68DF
:100390005FEA8B2454BF23EA080343EA08032B6077
:1003A0005FEA8B34DCF8043054BF23EA080343EAE5
:1003B00008035FEACB34CCF80430DCF800304FF0AF
:1003C000010454BF23EA080343EA0803CCF80030D1
:1003D0000E680AF1010A36FA0AF302F1040200F08B
:1003E0009F8004FA0AF816EA080FF1D04B687345AB
:1003F00012DC122B56D8DFE803F0350B4549555572
:1004000055555555555555555555554D510000BFE8
:10041000D1F80C9046E000BF4FF6FF75C1F2210500
:10042000AB420FDC0025C1F21105AB421AD000250A
:10043000C1F21205AB4215D00025C1F22105AB4235
:1004400010D02FE00025C1F22205AB420AD00025D2
:10045000C1F23105AB4205D00025C1F23205AB42F5
:1004600020D100BF8B684BB1012B14BFC0F81480A2
:10047000C0F810804FF0080914E000BF4FF00409E5
:1004800010E000BFCB6803F108090BE04FF0000952
:1004900008E000BFCB6803F1040903E0CB6803F177
:1004A0000C0900BF13460546BAF1080F24BF203BD4
:1004B00004352E680F279F40BE4309FA03F33343E8
:1004C0002B60CB79DB067FF583AF41F21804C4F2D1
:1004D000020423684FEA9A0643F00103236023686D
:1004E00040F6000403F001030193019BACF57E7319
:1004F00053F826B0C4F20104A0420FD040F60044E5
:10050000C4F20104A0423FF425AF41F20004C4F25A
:100510000104009DA04208BF02251CE700251AE740
:1005200002B0BDE8F08F0000002A08BF0904016195
:100530007047000040F2C400C2F20000006870473B
:100540007047000070470000F0B581B007680446AE
:100550007868E26A94F83E3094F83DE0402B01D090
:10056000102B27D1BE697D69E90751D1B2F12A4F1D
:1005700000F0C082B2F52A0F00F0BC8200F40072D5
:100580004FF0010C29078CEA522C45D5002A43D0A4
:10059000606B616CC9B2396118B1806A002840F0A3
:1005A0002281A06B002800F0A582806A002840F01C
:1005B0001A819FE2216C00F4007300290CBFBE6910
:1005C00000267D69A90753D5002B51D0206C002847
:1005D00018BFBE6994F83D0000F02800282840F0BC
:1005E00093807868002320F480607860012020EAFE
:1005F000960130064FF0180058BF0C20225A2046B2
:1006000084F83C3001B0BDE8F040FFF79BBF00BF6D
:10061000810557D44FF0010CA90759D5BCF1000F43
:1006200056D194F83E30E06A226B94F83D102229AE
:1006300040F0E080216D002908BF402B00F0DA80F7
:10064000216D002940F034812169B1F5404F40F01F
:100650002F810020009078690090B8690090009880
:10066000386840F480703860206D013095E200BF3A
:10067000E90655D5002B53D094F83D50786820F406
:10068000E06078600020009078690090386840F061
:10069000010038600098386820F48060386078681D
:1006A000000540F1428105F0F7002646222840F07F
:1006B0001B8156F8380F0168496826F80E1C36F879
:1006C0000E1C19E1E06AB0F52A0F5DD1012060E04F
:1006D0007968720701F4006100F19680002940F00A
:1006E0000982690605F0040140F1B08110F48060D0
:1006F00000F0AC81002940F0A981204601B0BDE89E
:10070000F04001F0CBB800BF002000907969009163
:10071000B9690091009984F83C0001B0F0BD00BFB8
:100720000EF0F701212940F08580290605F004022A
:1007300040F14C8110F4806000F04881002A40F0C4
:10074000458194F83D00618D002900F0D381616AF4
:1007500011F8012B3A616162618D01396185618D0A
:10076000002908BF292840F0C5817868282120F495
:100770008060786021202063204684F83D1001B01D
:10078000BDE8F04000F014BBE06AB0F12A4F01D19F
:100790000820E06294F83E0040280BD1206D616C87
:1007A000002801F0FE0018BF40F00100386101B0E0
:1007B000F0BD00BF2069B0F5804F69D194F83D00CD
:1007C000616C212801F0FE0118BF01313961606BB5
:1007D00008B1806A38B9A06B002800F08B81806A6C
:1007E000002800F08781786840F40060786001B0EC
:1007F000F0BD00BF0020009078690090B8690090BB
:10080000009801B0F0BD00BF002940F073812906B7
:1008100005F0040140F1268110F4806000F022818F
:10082000002940F01F81204601B0BDE8F04001F0F2
:1008300021B900BF690605F0040240F1DB8010F425
:10084000806000F0D780002A40F0D48094F83D000A
:10085000618D002900F04E813969626A1170616A08
:1008600001316162618D01396185618D002908BFA7
:100870002A2840F03F812068416821F4806141606E
:10088000222028212063204684F83D10D9E000BFB3
:10089000206D002800F0C080206D012840F02A81E2
:1008A000606C062101EAD010F130386101B0F0BD72
:1008B000618D61B1618D012940F0E480202818BF6D
:1008C000082840F01981386820F4806038600020E2
:1008D000009078690090B86900900098386840F4FA
:1008E0000070386058E100BF56F8340F016849685D
:1008F00026F80A1C36F80A1C19B1216C41F00401D3
:100900002164796821F400617960FFF7FFFC012818
:100910000BD0306841F2F541C0F600014163FFF7AA
:100920009BFC10B13068416B8847608D60B12068D6
:100930004169490730D4416949063AD4608D18B1FC
:10094000206C40F004002064206C28B1204601B0E7
:10095000BDE8F04000F060BE2A2D07D100202063E2
:10096000282084F83D00204600F020FA94F83D004D
:10097000282859D10020CFF6FF70E0620021202006
:10098000216384F83D00204684F83E1001B0BDE8A4
:10099000F04000F0C7B900BF0069616A0870616A81
:1009A000206801316162618D0139618541694906C3
:1009B000C4D50069616A0870606A01306062608D48
:1009C00001386085608D0028BAD1BDE7002A18BFC4
:1009D000002B00F08F80608D002800F08B80606A13
:1009E00010F8011B39616062608D0138608501B0CB
:1009F000F0BD00BF002A18BF002B00F07B80608D87
:100A0000002877D03869616A0870606A01306062D6
:100A1000608D013860856DE0606C062101EAD010C0
:100A2000F030386101B0F0BD206B222818BF222DB4
:100A300060D100212020216384F83D00204684F805
:100A40003E1001B0BDE8F04000F0B0B9B1FA81F05D
:100A5000400950EA0C004DD1204601B0BDE8F040FD
:100A600000F0A0BEB1FA81F0400950EA0C0041D17B
:100A7000BEF1210F36D1204601B0BDE8F04000F0B4
:100A8000B7BF00BF618D022914D1102858D80121A9
:100A900014228140C0F20102114251D0396841F460
:100AA000806139600021009179690091B9690091F4
:100AB000009954E0396841F480613960796809052A
:100AC00063D5421E1F2A5DD80121914048F2810260
:100AD000C8F20002114255D0786840F48050786026
:100AE00053E000BF402B05D1204601B0BDE8F040E7
:100AF00001F01AB801B0F0BD10F5803F0CD1386894
:100B000020F480603860786800057FF5E0AE3868D2
:100B100020F48060386038E0122A02D101287FF486
:100B2000D2AE1028F3D8012101FA00F01421C0F24E
:100B300001010842EBD0386840F48060386024E05E
:100B4000396841F4006139600021009179690091B0
:100B5000B96900910099396821F480613960796838
:100B6000090519D5421E1F2A1AD80121914048F2C1
:100B70008102C8F20002114212D0786840F480501D
:100B8000786009E010F5803FA6D0002000907869D9
:100B90000090B869009000980020206501B0F0BD79
:100BA00010F5803FE9D0F7E77047000070B5B8B3A3
:100BB000044690F83D0028B9002084F83C00204607
:100BC00000F0BAF8242084F83D002068016821F084
:100BD00001010160016841F400410160016821F4F4
:100BE0000041016000F07AFA48F28041C0F21E0133
:100BF00040F60013D4F804E088424FF00001C0F240
:100C00003D0348F2A16C4FF0000238BF0121984229
:100C1000C0F2010C38BF0122E64538BF0A460AB1CE
:100C2000012070BD4DF68361C4F21B31A0FB01129F
:100C30002168950C4B684FF4967623F03F0343EA06
:100C40009243754344F6D3564B60C1F262060B6A79
:100C5000A5FB0656B50923F03F03E64538BF950CC2
:100C60006A1C1A430A62CA6948F2A0664CF6FF730E
:100C7000C0F20106B64522EA03020BD801384FEA5A
:100C80004E03B0FBF3F001306FF31F30042898BF20
:100C900004201EE0A368013863B119230EFB03F39F
:100CA000B0FBF3F001306FF31F3078B100F58040F6
:100CB00008E000BF0EEB4E03B0FBF3F001306FF322
:100CC0001F3028B100F5004003E000BF012000E024
:100CD00001201043C8610868D4E9072320F0C00050
:100CE000104318430860886848F2FF3204F10C068C
:100CF00090434CCE18431043A5698860C86820F023
:100D0000FF0030432843C860086840F001000860D5
:100D100000202021206484F83D10206384F83E00E8
:100D200070BD000070470000704700007047000071
:100D3000704700007047000010B586B045F20041D2
:100D40000068C4F2000100228842049202D006B07A
:100D500010BD00BF41F21804C4F20204206840F044
:100D600008002060206800F0080001900198C02071
:100D70000290122003900320059001F5384002A94B
:100D8000FFF7C8FA6068002140F4001060606068F6
:100D9000002200F40010019001981F2000F082F85A
:100DA0001F2000F06FF806B010BD00007047000073
:100DB0007047000040F2000040F2C401C2F200009F
:100DC000C2F2000100780A68104408607047000011
:100DD00080B542F20000C4F20200016841F0100147
:100DE0000160032000F08AF80F2000F005F800F001
:100DF00027F8002080BD000070B540F20006C2F266
:100E0000000640F208013278C2F200014FF47A7312
:100E10000968B3FBF2F20446B1FBF2F1084600F0B8
:100E20004BFB0F2C4FF0010508D838B94FF0FF30BD
:100E300021460022002500F035F87460284670BD78
:100E400082B041F21800C4F202000168022241F0AF
:100E500001010160016801F00101019101994168FE
:100E600041F080514160406800F08050009000984F
:100E70000420C4F20100016862F31A61016002B04B
:100E800070470000002848BF704700F01F01012292
:100E900002FA01F14EF200124009CEF2000242F8CD
:100EA0002010704710B54EF60C5CCEF2000CDCF84A
:100EB0000030C3F3022E8EF00704042C28BF042454
:100EC000BEF103034FF0FF3E0EFA04F438BF0023D7
:100ED000A14399400EFA03F39A43114300F00F0225
:100EE000043A624409010C3200F16043B0F1FF3F63
:100EF000C8BF03F56442117010BD00004EF60C51DE
:100F0000CEF200010A684FF6FF031A4060F30A228E
:100F100042F0806040F0FD70086070472DE9F043BA
:100F200081B0002800F0858042F20008C4F2020877
:100F30000446D8F800000D4600F0070088420CD2A5
:100F4000D8F8000020F007002843C8F80000D8F8BF
:100F5000000000F00700A8426BD1206841F20409AC
:100F60008107C4F2020917D5410705D5D9F8001049
:100F700041F4E061C9F80010010705D5D9F8001067
:100F800041F46051C9F80010D9F80010A26821F0AE
:100F9000F0011143C9F80010C00741D1D8F8000092
:100FA00000F00700A8420CD9D8F8000020F0070094
:100FB0002843C8F80000D8F8000000F00700A84255
:100FC00037D12068410707D5D9F80010E26821F42D
:100FD000E0611143C9F80010000708D5D9F80000F6
:100FE000216920F4605040EAC100C9F80000D9F836
:100FF000002002F00C00082841F20020C0F27A0024
:1010000050D141F65453C2F38341C0F60003595CFA
:10101000D2033BD440F60010C0F23D00484341E00B
:10102000606802280AD001282AD159F8041C8903D3
:1010300008D4012001B0BDE8F08300BF59F8041CBA
:101040008901F6D5D9F8001021F003010843C9F849
:101050000000FFF76FFA064641F28837D9F8000022
:10106000616800F00C00B0EB810F97D0FFF762FAD7
:10107000801BB842F2D9032001B0BDE8F08300BF65
:1010800059F8041C8907D4D5DCE700BFD9F8002043
:1010900041F65253C2F34042C0F600039A5C484303
:1010A000B0FBF2F0D9F8001041F63A52C1F3031147
:1010B000C0F60002515C40F2080220FA01F140F251
:1010C0000400C2F200000068C2F200021160FFF7E3
:1010D00093FE002001B0BDE8F083000040F208005C
:1010E00041F20401C2F20000C4F202010068096882
:1010F00041F64A52C1F30221C0F60002515CC840D9
:10110000704700002DE9F04182B0002868D0044605
:10111000007841F20006C007C4F2020625D07068CC
:1011200000F00C0004281BD0706800F00C000828A8
:1011300002D17068C00313D46068002800F0688191
:10114000B0F5A02F00F07C81B0F5803F00F07C81ED
:10115000306820F480303060306820F4802076E100
:101160003068800301D56068D0B32078800718D537
:10117000706810F00C0F07D0706800F00C000828A1
:101180006ED17068C0036BD43068800702D52069C7
:10119000012825D13068616920F0F80040EAC100DB
:1011A0003060207800071FD42078400732D4E569EA
:1011B00095B1706800F00C00082840F08F80012D78
:1011C0000ED07068216A00F480328A4208D1616AC8
:1011D00000F47010884203D1002002B0BDE8F08115
:1011E000012002B0BDE8F081A069002862D0002093
:1011F000C4F242200121C0F88014FFF79BF9054694
:10120000706A800700F18C80FFF794F9401B022878
:10121000F6D92AE1F06910F0805808D1F06940F061
:101220008050F061F06900F080500090009847F223
:101230000007C4F200073868C00529D4386840F4B4
:1012400080703860FFF776F9054600BF3868C00542
:101250001ED4FFF76FF9401B6428F7D905E100BFE2
:101260002069002840F20000C4F2422000F0828091
:1012700001210160FFF75EF9054600BF3068800775
:101280003FF588AFFFF756F9401B0228F6D9ECE08E
:10129000E068002800F08080052800F09780012891
:1012A00000F09880306A20F001003062306A20F04F
:1012B000040092E00020C4F242200021C0F8801413
:1012C000FFF738F9054600BF706A80077FF56CAFFD
:1012D000FFF730F9401B0228F6D9C6E00027C4F218
:1012E000422700203866FFF725F9022D05460BD16D
:1012F0003068800140F1BE80FFF71CF9401B0228D6
:101300004FF00300F4D968E7306880017FF564AFDF
:10131000FFF710F9401B02284FF00300F4D95CE7F7
:1013200040F20800C2F20000006844F6D351C1F256
:101330006201A0FB0101480A019000BF00BF0198B3
:10134000411E002801913FF42FAF00BF0198411EBC
:10135000002801913FF428AF00BF0198411E0028EA
:1013600001913FF421AF00BF0198411E0028019177
:10137000E4D119E700210160FFF7DCF8054600BF62
:10138000306880077FF50DAFFFF7D4F8401B0228C7
:101390004FF00300F4D920E7306A20F001003062FA
:1013A000306A20F004003062FFF7C4F8054641F2CD
:1013B000883700BF306A800720D5FFF7BBF8401B95
:1013C000B8424FF00300F5D907E700BF306A40F09C
:1013D00004003062306A40F001003062FFF7AAF882
:1013E000054641F2883700BF306A800706D4FFF710
:1013F000A1F8401BB842F7D937E000BFB8F1000FA1
:101400007FF4D5AEF06920F08050F061CFE600BFE8
:10141000306820F480303060306820F48020306004
:10142000FFF788F8054600BF306880037FF59DAE62
:10143000FFF780F8401B64284FF00300F4D9CCE696
:10144000306840F480203060306840F48030306094
:10145000FFF770F8054600BF306880033FF585AEA2
:10146000FFF768F8401B6428F6D9032002B0BDE8F6
:10147000F08100BF206AB0F5803F05D17168A26895
:1014800021F40031114371607168626A21F47411B2
:1014900010430843706001203866FFF74BF804469C
:1014A000306880013FF598AEFFF744F8001B022832
:1014B0004FF00300F4D990E6411E0020B0EB116F0D
:1014C0001CBF012070474EF21002CEF200025160A4
:1014D0004EF62351CEF20001F0230B7007219060ED
:1014E00011607047FEE7000040F27000C2F2000099
:1014F000FFF72AB810B581B000210091406A40F290
:101500000801C2F2000190F83DC009684BF289520F
:10151000C908C1F2F842A1FB0212110A2322514369
:101520000091009911B3009901390091016809688F
:1015300089051FD50099C9B1009901390091016849
:101540000968890516D5009981B100990139009182
:101550000168096889050DD5009939B100990139EB
:101560000091016809688905DBD403E0016C41F052
:1015700020010164446B4FF0000E002C1CBF0021C1
:10158000A162816B00291CBF00228A620268002CC4
:10159000136823F480631360A0F82AE018BFC4F82E
:1015A00034E000291CBF00234B63116821F00101C6
:1015B000116090F83D1060290CD1202180F83D1079
:1015C000002180F83E10016401B0BDE81040FEF734
:1015D000B7BF00BF0CF02801282911D1116841F0D4
:1015E00001011160116841F4806111600021016303
:1015F000282180F83D1001B0BDE81040FFF7D4BAB3
:10160000202180F83D10002180F83E1001B0BDE897
:101610001040FFF7C9BA000010B5044690F83D101D
:1016200090F83E00B0F1100218BF0122403818BFF8
:101630000120024208BF222934D001F028002828C6
:101640003AD100202063282084F83D0020684168BA
:10165000090542D5416821F400614160606B90F852
:101660002110012958D1A06B41F2F541C0F60001CB
:101670004163FEF7F1FD002861D020684169490609
:1016800006D50069616A0870616A2068013161628B
:10169000016821F001010160202084F83D00A06B69
:1016A0004BE000BF2068026822F4006202604268DA
:1016B000120505D50CE000BF20684268120507D46A
:1016C000602905D0202184F83D10002184F83E10C7
:1016D0000021216341680905BCD494F83D106029BC
:1016E00050D1202184F83D10002121644169490630
:1016F00006D50069616A0870616A2068013161621B
:10170000016821F0010101602046FEF719FF206CFD
:10171000000717D11BE000BF41F2F541C0F6000100
:101720004163FEF799FD50B12168606B0A6822F0B1
:1017300001020A60202184F83D10416B8847206C2B
:10174000000704D02068416821F4E061416094F80A
:101750003D00216C490758BF10BD282810D100203A
:10176000CFF6FF70E06200212020216384F83D0065
:10177000204684F83E10BDE81040FFF7D3BA00BF02
:1017800010BD00BF4169490605D50069616A08704E
:10179000606A013060622046FFF706FA206C00079D
:1017A000D0D1D4E7C16A428D042A07D10168426AC8
:1017B0004B6823F480634B60096911E0428D032A72
:1017C00016D102680229536823F48063536005D060
:1017D000042903D0116821F4806111601169426A03
:1017E0001170416A01314162418D01394185704773
:1017F000428D022A12D14A1E0F2A19D8DFE802F0C0
:101800000812181218181818181818181818180884
:101810000268136823F480630EE000BF0168426A27
:10182000CAE700BF0268136843F4806304E000BFA6
:101830000268136843F4007313601269436A1A70F4
:10184000426AD0F800C0531C4362438D013B43857C
:10185000DCF810305370426A036801324262428DF4
:10186000013A42855A6822F440725A60202280F878
:101870003D2090F83E300022402B80F83E2003D1DE
:101880000263FFF755BA00BFB1F1080218BF122278
:10189000203918BF11460163FFF746BA81B090F8AE
:1018A0003D10222979D1C16A428D042A14D30168DE
:1018B000426A09691170416A01314162418D013901
:1018C0004185418D032968D10068416821F4806118
:1018D000416001B0704700BFC36A022B58D0012A93
:1018E00056D80022009240F20802C2F200021268AA
:1018F0004BF28953D208C1F2F843A2FB03231A0A20
:1019000002EB82020092009A013A0092009A002AA9
:1019100046D0026813689B051AD5009A013A0092D6
:10192000009AEAB3026813689B0511D5009A013A40
:101930000092009AA2B3026813689B0508D5009A2A
:10194000013A0092009A5AB3026813689B05DAD4F0
:10195000136823F480631360536823F4E0635360D7
:101960001269436A1A70426A01324262428D013A38
:101970004285202280F83D2090F83E300022402B06
:1019800080F83E2028D1026301B0FFF7D1B900BF33
:101990000068416821F48061416001B0704700BF78
:1019A000016C41F0200101640168426A4B6823F434
:1019B000E0634B6009691170416A01314162418DF8
:1019C00001394185202180F83D10002180F83E102A
:1019D00001B0FFF7E9B800BFB1F1080218BF122249
:1019E000203918BF1146016301B0FFF79DB900000F
:1019F000C16A90F83D20212A18BF7047428D4AB134
:101A0000416A026811F8013B13614162418D01395D
:101A10004185704711F5803F18BF082918D101682A
:101A20004A6822F4E0624A600A6842F400720A607E
:101A300000212022016380F83D2090F83E2080F8AC
:101A40003E10402A08BFFFF775B9FFF76FB900BF16
:101A50002029E4D001684A6822F4E0624A6011213A
:101A60000163002180F83E10202180F83D10FFF72F
:101A70005DB9000090F83D1090F83EC0C26A038D39
:101A8000002B08BF212919D0212905D0BCF1400F16
:101A900008BF222900D07047418D69B390F83E10ED
:101AA000402908BF00F040B8416A026811F8013BC4
:101AB00013614162418D01394185704712F5803FC4
:101AC00018BF082A1ED101684A6822F4E0624A6001
:101AD0000A6842F400720A6000212022016380F843
:101AE0003D2090F83E2080F83E10402A08BFFFF7C6
:101AF00021B9FFF71BB900BF0068416821F480617C
:101B000041607047202ADED001684A6822F4E06212
:101B10004A6011210163002180F83E10202180F8E5
:101B20003D10FFF703B9000090F83D10026D5AB167
:101B3000026D012A14D10168826CD2B20A61016D72
:101B400001310165704700BFC26C816C012A15D15B
:101B50000268C9B21161016D02310165704700BFB1
:101B6000026D022A12D1222918D101680A6842F4B2
:101B700080720A60016D0131016570470268C1F32E
:101B800007211161016D01310165704700684169EC
:101B9000090644BF00210161704700BF428D5AB160
:101BA000212909D1416A026811F8013B13614162A0
:101BB000418D013941857047428D002A08BF212996
:101BC000EAD101684A6822F4E0624A600A6842F495
:101BD00000720A6000212022016380F83D2080F815
:101BE0003E10FFF7A7B8000070B584B041F21800AE
:101BF000C4F20200016841F2000441F010010160EA
:101C00000168C4F2010401F010010091009901681B
:101C1000002241F02001016001684FF4005501F0FD
:101C20002001009100990168002641F00401016043
:101C3000016801F0040100910099016841F0080178
:101C4000016000684FF4005100F008000090009817
:101C50002046FEF769FC0120CDE901060220039031
:101C6000694620460095FEF755FB04B070BD0000A4
:101C700080B540F2700045F20041C2F20000C4F2AB
:101C8000000141F6802200234FF4804CC0F206028E
:101C900080E80E00C0E9033CC0E90533C0E9073322
:101CA000FEF784FF002808BF80BDBDE88040FEF736
:101CB000CDBA0000FEE70000FEE70000704700001C
:101CC00070470000FFF776B870470000FEE700009D
:101CD00090B0FFF77DF800240120CDE90B44CDE959
:101CE000094406900A904FF4E0104FF48031022529
:101CF0000F9006A8CDE90714CDE90D51FFF702FAC0
:101D000020B1EFF3108072B6FEE700BF0F20CDE9DF
:101D100001054FF48060CDE9040401A80221039479
:101D2000FFF7FCF820B1EFF3108072B6FEE700BFBA
:101D3000FFF75AFFFFF79CFFFEE7000000000000DE
:101D40000000010203040607080900000000010268
:101D50000304010202030405060708090A0B0C0D1F
:101D60000E0F1010881D0008000000201000000059
:101D700028010008981D000810000020B806000087
:101D800044010008000000000100000010000000F5
:081D900000127A0000000000BF
:04000005080000ED02
:00000001FF
