:020000040800F2
:10000000D80A002089010008A1230008D1160008A1
:100010009D230008A1020008B5230008000000008D
:10002000000000000000000000000000A9230008FC
:10003000A502000800000000A5230008AD23000869
:10004000A3010008A3010008A3010008A301000800
:10005000A3010008A3010008A3010008A3010008F0
:10006000A3010008A3010008A3010008A3010008E0
:10007000A3010008A3010008A3010008A3010008D0
:10008000A3010008A3010008A3010008A3010008C0
:10009000A3010008A3010008A3010008A3010008B0
:1000A000A3010008A3010008A3010008A3010008A0
:1000B000A3010008A3010008A3010008D516000849
:1000C000A3010008A3010008A3010008A301000880
:1000D000A3010008A3010008A3010008A301000870
:1000E000A3010008A3010008A301000800F002F822
:1000F00000F03AF80AA090E8000C82448344AAF188
:100100000107DA4501D100F02FF8AFF2090EBAE885
:100110000F0013F0010F18BFFB1A43F0010318473B
:10012000583B0000783B0000103A24BF78C878C1E3
:10013000FAD8520724BF30C830C144BF04680C60ED
:10014000704700000023002400250026103A28BF35
:1001500078C1FBD8520728BF30C148BF0B60704739
:100160001FB51FBD10B510BD00F060F81146FFF7B8
:10017000F7FF02F021F900F07EF803B4FFF7F2FF79
:1001800003BC00F085F80000094880470948004793
:10019000FEE7FEE7FEE7FEE7FEE7FEE7FEE7FEE737
:1001A000FEE7FEE704480549054A064B7047000094
:1001B000B1230008ED000008D8040020D80A002070
:1001C000D8060020D806002002F0FF0343EA0322ED
:1001D00042EA024200F002B84FF0000200B51346B6
:1001E00094469646203922BFA0E80C50A0E80C5057
:1001F000B1F12001BFF4F7AF090728BFA0E80C5008
:1002000048BF0CC05DF804EB890028BF40F8042B00
:1002100008BF704748BF20F8022B11F0804F18BF6D
:1002200000F8012B7047704770477047754600F023
:100230002BF8AE4605006946534620F00700854678
:1002400018B020B5FFF7AEFFBDE820404FF0000624
:100250004FF000074FF000084FF0000BAC46ACE841
:10026000C009ACE8C009ACE8C009ACE8C00921F09D
:1002700007018D46704710B50446AFF30080204655
:10028000BDE81040FFF779BF004870471800002014
:1002900001491820ABBEFEE72600020070470000AF
:1002A000FEE7000070470000EFF3108072B600BF59
:1002B000FEE7000080B590F82110022924D10268E1
:1002C000116821F00E0111602F211368C4F20201A0
:1002D0008A4240F20401C4F2020123F001031360D8
:1002E00016DD3023C4F202039A421DD04423C4F227
:1002F00002039A421CD05823C4F202039A421DD131
:100300004FF4803322E000BF04218163012080BDCF
:100310000823C4F202039A420ED01C23C4F2020343
:100320009A420BD1102311E04FF480730EE000BF0E
:100330004FF480530AE000BF012307E001F1680C8D
:100340004FF08073624508BF4FF480130B600121AA
:1003500080F82110426B002180F820100AB19047EC
:100360000021084680BD000090F821007047000081
:10037000B0B5044600F028F9054640F20000C2F28C
:1003800000000078611C18BF044400BF00F01CF995
:10039000401BA042FAD3B0BD2DE9F04F82B041F22C
:1003A0000042C4F201020E680423904208BF0323F6
:1003B000002E009300F0F68040F2004C4FF6FF7ED6
:1003C0000022C4F2010C0124C1F2100E4FF0000A09
:1003D0004FF0000947E000BF012502F00C040F2791
:1003E000A7402BEA070705FA04F43C4343F82640EC
:1003F000D1F804B040F20C455FEACB23DCF80830BA
:1004000054BF23EA080343EA0803C4F20105CCF809
:1004100008302B685FEA8B2454BF23EA080343EAC1
:1004200008032B605FEA8B34DCF8043054BF23EA06
:10043000080343EA08035FEACB34CCF80430DCF865
:1004400000304FF0010454BF23EA080343EA0803D5
:10045000CCF800300E680AF1010A36FA0AF302F10C
:10046000040200F09F8004FA0AF816EA080FF1D09F
:100470004B68734512DC122B56D8DFE803F0350BBE
:100480004549555555555555555555555555554D40
:10049000510000BFD1F80C9046E000BF4FF6FF7549
:1004A000C1F22105AB420FDC0025C1F21105AB42C0
:1004B0001AD00025C1F21205AB4215D00025C1F2B9
:1004C0002105AB4210D02FE00025C1F22205AB423E
:1004D0000AD00025C1F23105AB4205D00025C1F29A
:1004E0003205AB4220D100BF8B684BB1012B14BF4A
:1004F000C0F81480C0F810804FF0080914E000BF65
:100500004FF0040910E000BFCB6803F108090BE0CD
:100510004FF0000908E000BFCB6803F1040903E0D5
:10052000CB6803F10C0900BF13460546BAF1080F6A
:1005300024BF203B04352E680F279F40BE4309FA95
:1005400003F333432B60CB79DB067FF583AF41F2B6
:100550001804C4F2020423684FEA9A0643F0010328
:100560002360236840F6000403F001030193019B1C
:10057000ACF57E7353F826B0C4F20104A0420FD04C
:1005800040F60044C4F20104A0423FF425AF41F21A
:100590000004C4F20104009DA04208BF02251CE72C
:1005A00000251AE702B0BDE8F08F0000C26802EA39
:1005B0000103914341EA034101617047002A08BFEA
:1005C000090401617047000040F2D440C2F200000B
:1005D000006870477047000070470000F0B581B0B8
:1005E000076804467868E26A94F83E3094F83DE083
:1005F000402B01D0102B27D1BE697D69E90751D16D
:10060000B2F12A4F00F0C082B2F52A0F00F0BC828E
:1006100000F400724FF0010C29078CEA522C45D5EA
:10062000002A43D0606B616CC9B2396118B1806A2D
:10063000002840F02281A06B002800F0A582806A8B
:10064000002840F01A819FE2216C00F40073002919
:100650000CBFBE6900267D69A90753D5002B51D078
:10066000206C002818BFBE6994F83D0000F02800F7
:10067000282840F093807868002320F48060786018
:10068000012020EA960130064FF0180058BF0C20D8
:10069000225A204684F83C3001B0BDE8F040FFF714
:1006A0009BBF00BF810557D44FF0010CA90759D556
:1006B000BCF1000F56D194F83E30E06A226B94F8FA
:1006C0003D10222940F0E080216D002908BF402B19
:1006D00000F0DA80216D002940F034812169B1F504
:1006E000404F40F02F810020009078690090B86959
:1006F00000900098386840F480703860206D0130B8
:1007000095E200BFE90655D5002B53D094F83D5033
:10071000786820F4E06078600020009078690090AC
:10072000386840F0010038600098386820F4806034
:1007300038607868000540F1428105F0F7002646F0
:10074000222840F01B8156F8380F0168496826F8C6
:100750000E1C36F80E1C19E1E06AB0F52A0F5DD1C7
:10076000012060E07968720701F4006100F1968071
:10077000002940F00982690605F0040140F1B081CA
:1007800010F4806000F0AC81002940F0A98120467F
:1007900001B0BDE8F04001F077B900BF0020009043
:1007A00079690091B9690091009984F83C0001B021
:1007B000F0BD00BF0EF0F701212940F08580290629
:1007C00005F0040240F14C8110F4806000F0488193
:1007D000002A40F0458194F83D00618D002900F029
:1007E000D381616A11F8012B3A616162618D01392F
:1007F0006185618D002908BF292840F0C58178688E
:10080000282120F48060786021202063204684F82D
:100810003D1001B0BDE8F04000F0C0BBE06AB0F1AF
:100820002A4F01D10820E06294F83E0040280BD105
:10083000206D616C002801F0FE0018BF40F001003F
:10084000386101B0F0BD00BF2069B0F5804F69D1BB
:1008500094F83D00616C212801F0FE0118BF0131C0
:100860003961606B08B1806A38B9A06B002800F06C
:100870008B81806A002800F08781786840F40060EE
:10088000786001B0F0BD00BF002000907869009052
:10089000B8690090009801B0F0BD00BF002940F099
:1008A0007381290605F0040140F1268110F480606F
:1008B00000F02281002940F01F81204601B0BDE8F0
:1008C000F04001F0CDB900BF690605F0040240F127
:1008D000DB8010F4806000F0D780002A40F0D480E4
:1008E00094F83D00618D002900F04E813969626AFB
:1008F0001170616A01316162618D01396185618DBB
:10090000002908BF2A2840F03F812068416821F46F
:1009100080614160222028212063204684F83D1018
:10092000D9E000BF206D002800F0C080206D0128B4
:1009300040F02A81606C062101EAD010F130386164
:1009400001B0F0BD618D61B1618D012940F0E4809D
:10095000202818BF082840F01981386820F48060EA
:1009600038600020009078690090B8690090009885
:10097000386840F40070386058E100BF56F8340F12
:100980000168496826F80A1C36F80A1C19B1216C5E
:1009900041F004012164796821F400617960FFF776
:1009A000E3FC01280BD0306841F2E161C0F60001A0
:1009B0004163FFF77FFC10B13068416B8847608D61
:1009C00060B120684169490730D4416949063AD489
:1009D000608D18B1206C40F004002064206C28B1B8
:1009E000204601B0BDE8F04000F00CBF2A2D07D131
:1009F00000202063282084F83D00204600F0CCFA37
:100A000094F83D00282859D10020CFF6FF70E0620D
:100A100000212020216384F83D00204684F83E1008
:100A200001B0BDE8F04000F0C7B900BF0069616ADD
:100A30000870616A206801316162618D01396185E8
:100A400041694906C4D50069616A0870606A01306D
:100A50006062608D01386085608D0028BAD1BDE785
:100A6000002A18BF002B00F08F80608D002800F056
:100A70008B80606A10F8011B39616062608D0138FB
:100A8000608501B0F0BD00BF002A18BF002B00F048
:100A90007B80608D002877D03869616A0870606A51
:100AA00001306062608D013860856DE0606C062108
:100AB00001EAD010F030386101B0F0BD206B22287F
:100AC00018BF222D60D100212020216384F83D0031
:100AD000204684F83E1001B0BDE8F04000F05CBA5A
:100AE000B1FA81F0400950EA0C004DD1204601B026
:100AF000BDE8F04000F04CBFB1FA81F0400950EA87
:100B00000C0041D1BEF1210F36D1204601B0BDE825
:100B1000F04001F063B800BF618D022914D11028A4
:100B200058D8012114228140C0F20102114251D053
:100B3000396841F480613960002100917969009140
:100B4000B9690091009954E0396841F480613960D5
:100B50007968090563D5421E1F2A5DD8012191409D
:100B600048F28102C8F20002114255D0786840F480
:100B70008050786053E000BF402B05D1204601B083
:100B8000BDE8F04001F0C6B801B0F0BD10F5803FFF
:100B90000CD1386820F480603860786800057FF5F3
:100BA000E0AE386820F48060386038E0122A02D164
:100BB00001287FF4D2AE1028F3D8012101FA00F009
:100BC0001421C0F201010842EBD0386840F4806083
:100BD000386024E0396841F40061396000210091F7
:100BE00079690091B96900910099396821F48061AF
:100BF00039607968090519D5421E1F2A1AD80121C2
:100C0000914048F28102C8F20002114212D0786885
:100C100040F48050786009E010F5803FA6D00020B5
:100C2000009078690090B8690090009800202065D5
:100C300001B0F0BD10F5803FE9D0F7E77047000044
:100C400070B5B8B3044690F83D0028B9002084F888
:100C50003C00204600F066F9242084F83D0020681E
:100C6000016821F001010160016841F40041016067
:100C7000016821F40041016000F026FB48F2804148
:100C8000C0F21E0140F60013D4F804E088424FF091
:100C90000001C0F23D0348F2A16C4FF0000238BFE2
:100CA00001219842C0F2010C38BF0122E64538BF4D
:100CB0000A460AB1012070BD4DF68361C4F21B31B2
:100CC000A0FB01122168950C4B684FF4967623F037
:100CD0003F0343EA9243754344F6D3564B60C1F257
:100CE00062060B6AA5FB0656B50923F03F03E645ED
:100CF00038BF950C6A1C1A430A62CA6948F2A0669A
:100D00004CF6FF73C0F20106B64522EA03020BD887
:100D100001384FEA4E03B0FBF3F001306FF31F30A0
:100D2000042898BF04201EE0A368013863B119238A
:100D30000EFB03F3B0FBF3F001306FF31F3078B11B
:100D400000F5804008E000BF0EEB4E03B0FBF3F06F
:100D500001306FF31F3028B100F5004003E000BF01
:100D6000012000E001201043C8610868D4E907238E
:100D700020F0C000104318430860886848F2FF3232
:100D800004F10C0690434CCE18431043A5698860CB
:100D9000C86820F0FF0030432843C860086840F06E
:100DA0000100086000202021206484F83D102063A9
:100DB00084F83E0070BD00007047000070470000DE
:100DC0007047000070470000704700002DE9F043B5
:100DD00083B0994616460F460446FFF7F5FB94F894
:100DE0003D10202920D10546206800BF8169890770
:100DF00016D5FFF7E9FB411B20681A29F6D3816954
:100E00008907F3D500202021206384F83D1084F861
:100E10003E00216C41F02001216484F83C0003E095
:100E200094F83C10012903D1022003B0BDE8F083FF
:100E3000012284F83C200368DDE90B180A9ADB07DD
:100E400003D1036843F001030360036823F40063E4
:100E50000360212084F83D00402084F83E000020FB
:100E6000206462626185608D394620850020CFF65E
:100E7000FF70E062204632464B46CDF80080019577
:100E800000F0A8FF20B1012003B0BDE8F08300BF4F
:100E9000208D98B9204641462A4600F0FFFF88B3CE
:100EA000206C0428EFD12068016841F400710160D2
:100EB000012003B0BDE8F0830004EBD0204641469A
:100EC0002A4601F0A5F90028EAD1616A226808469D
:100ED00010F8013B1361238D6062581E2085678DD9
:100EE000013F678557697F07E6D50704E4D0487856
:100EF0001061881C6062981E2085618D01396185B2
:100F0000DAE700BF2068016841F400710160202029
:100F100084F83D00002084F83E0084F83C0003B0D3
:100F2000BDE8F08310B586B045F200410068C4F218
:100F3000000100228842049202D006B010BD00BF1A
:100F400041F21804C4F20204206840F00800206056
:100F5000206800F0080001900198C0200290122043
:100F600003900320059001F5384002A9FFF714FA19
:100F70006068002140F4001060606068002200F4A6
:100F80000010019001981F2000F082F81F2000F04F
:100F90006FF806B010BD00007047000070470000F9
:100FA00040F2000040F2D441C2F20000C2F200015F
:100FB00000780A68104408607047000080B542F26B
:100FC0000000C4F20200016841F01001016003203A
:100FD00000F08AF80F2000F005F800F027F8002054
:100FE00080BD000070B540F20006C2F2000640F27B
:100FF00010013278C2F200014FF47A730968B3FB32
:10100000F2F20446B1FBF2F1084600F04BFB0F2C64
:101010004FF0010508D838B94FF0FF3021460022C3
:10102000002500F035F87460284670BD82B041F2AA
:101030001800C4F202000168022241F001010160BF
:10104000016801F0010101910199416841F080516D
:101050004160406800F08050009000980420C4F285
:101060000100016862F31A61016002B0704700007C
:10107000002848BF704700F01F01012202FA01F169
:101080004EF200124009CEF2000242F820107047E2
:1010900010B54EF60C5CCEF2000CDCF80030C3F359
:1010A000022E8EF00704042C28BF0424BEF1030393
:1010B0004FF0FF3E0EFA04F438BF0023A1439940DD
:1010C0000EFA03F39A43114300F00F02043A62440C
:1010D00009010C3200F16043B0F1FF3FC8BF03F5D6
:1010E0006442117010BD00004EF60C51CEF20001AA
:1010F0000A684FF6FF031A4060F30A2242F080604C
:1011000040F0FD70086070472DE9F04381B0002881
:1011100000F0858042F20008C4F202080446D8F8C4
:1011200000000D4600F0070088420CD2D8F80000FD
:1011300020F007002843C8F80000D8F8000000F0AD
:101140000700A8426BD1206841F204098107C4F26C
:10115000020917D5410705D5D9F8001041F4E0611F
:10116000C9F80010010705D5D9F8001041F4605105
:10117000C9F80010D9F80010A26821F0F00111435D
:10118000C9F80010C00741D1D8F8000000F00700EE
:10119000A8420CD9D8F8000020F007002843C8F86E
:1011A0000000D8F8000000F00700A84237D12068FE
:1011B000410707D5D9F80010E26821F4E061114336
:1011C000C9F80010000708D5D9F80000216920F4FB
:1011D000605040EAC100C9F80000D9F8002002F0D0
:1011E0000C00082841F20020C0F27A0050D143F6EA
:1011F0006643C2F38341C0F60003595CD2033BD47B
:1012000040F60010C0F23D00484341E0606802280B
:101210000AD001282AD159F8041C890308D40120D6
:1012200001B0BDE8F08300BF59F8041C8901F6D570
:10123000D9F8001021F003010843C9F80000FFF7B6
:10124000C3F9064641F28837D9F80000616800F01A
:101250000C00B0EB810F97D0FFF7B6F9801BB842B6
:10126000F2D9032001B0BDE8F08300BF59F8041C97
:101270008907D4D5DCE700BFD9F8002043F66443E2
:10128000C2F34042C0F600039A5C4843B0FBF2F060
:10129000D9F8001042F6F062C1F30311C0F6000263
:1012A000515C40F2100220FA01F140F20400C2F257
:1012B00000000068C2F200021160FFF793FE0020F8
:1012C00001B0BDE8F083000040F2100041F20401DB
:1012D000C2F20000C4F202010068096842F600721E
:1012E000C1F30221C0F60002515CC8407047000003
:1012F0002DE9F04182B0002868D00446007841F220
:101300000006C007C4F2020625D0706800F00C0089
:1013100004281BD0706800F00C00082802D1706807
:10132000C00313D46068002800F06881B0F5A02FD6
:1013300000F07C81B0F5803F00F07C81306820F4C3
:1013400080303060306820F4802076E1306880039F
:1013500001D56068D0B32078800718D5706810F088
:101360000C0F07D0706800F00C0008286ED1706870
:10137000C0036BD43068800702D52069012825D1CD
:101380003068616920F0F80040EAC10030602078E0
:1013900000071FD42078400732D4E56995B1706802
:1013A00000F00C00082840F08F80012D0ED07068EE
:1013B000216A00F480328A4208D1616A00F4701018
:1013C000884203D1002002B0BDE8F081012002B0C4
:1013D000BDE8F081A069002862D00020C4F242205C
:1013E0000121C0F88014FFF7EFF80546706A800706
:1013F00000F18C80FFF7E8F8401B0228F6D92AE1BB
:10140000F06910F0805808D1F06940F08050F06128
:10141000F06900F080500090009847F20007C4F295
:1014200000073868C00529D4386840F480703860F7
:10143000FFF7CAF8054600BF3868C0051ED4FFF79D
:10144000C3F8401B6428F7D905E100BF20690028D4
:1014500040F20000C4F2422000F0828001210160CD
:10146000FFF7B2F8054600BF306880073FF588AF48
:10147000FFF7AAF8401B0228F6D9ECE0E068002844
:1014800000F08080052800F09780012800F0988007
:10149000306A20F001003062306A20F0040092E0EF
:1014A0000020C4F242200021C0F88014FFF78CF81D
:1014B000054600BF706A80077FF56CAFFFF784F8C0
:1014C000401B0228F6D9C6E00027C4F242270020BC
:1014D0003866FFF779F8022D05460BD13068800198
:1014E00040F1BE80FFF770F8401B02284FF0030068
:1014F000F4D968E7306880017FF564AFFFF764F8DE
:10150000401B02284FF00300F4D95CE740F21000C2
:10151000C2F20000006844F6D351C1F26201A0FBA0
:101520000101480A019000BF00BF0198411E002838
:1015300001913FF42FAF00BF0198411E0028019197
:101540003FF428AF00BF0198411E002801913FF4ED
:1015500021AF00BF0198411E00280191E4D119E795
:1015600000210160FFF730F8054600BF30688007B2
:101570007FF50DAFFFF728F8401B02284FF003005E
:10158000F4D920E7306A20F001003062306A20F0A0
:1015900004003062FFF718F8054641F2883700BFB3
:1015A000306A800720D5FFF70FF8401BB8424FF094
:1015B0000300F5D907E700BF306A40F0040030624D
:1015C000306A40F001003062FEF7FEFF054641F24E
:1015D000883700BF306A800706D4FEF7F5FF401B4E
:1015E000B842F7D937E000BFB8F1000F7FF4D5AEAD
:1015F000F06920F08050F061CFE600BF306820F441
:1016000080303060306820F480203060FEF7DCFFEE
:10161000054600BF306880037FF59DAEFEF7D4FF1E
:10162000401B64284FF00300F4D9CCE6306840F446
:1016300080203060306840F480303060FEF7C4FFB6
:10164000054600BF306880033FF585AEFEF7BCFF5E
:10165000401B6428F6D9032002B0BDE8F08100BF2A
:10166000206AB0F5803F05D17168A26821F400318D
:10167000114371607168626A21F474111043084368
:10168000706001203866FEF79FFF044630688001D5
:101690003FF598AEFEF798FF001B02284FF00300BD
:1016A000F4D990E6411E0020B0EB116F1CBF012061
:1016B00070474EF21002CEF2000251604EF62351F6
:1016C000CEF20001F0230B7007219060116070478B
:1016D000FEE7000040F28040C2F20000FEF77EBF4D
:1016E00010B581B000210091406A40F21001C2F2B1
:1016F000000190F83DC009684BF28952C908C1F257
:10170000F842A1FB0212110A2322514300910099D1
:1017100011B30099013900910168096889051FD545
:101720000099C9B1009901390091016809688905DA
:1017300016D5009981B100990139009101680968B5
:1017400089050DD5009939B10099013900910168D9
:1017500009688905DBD403E0016C41F020010164D4
:10176000446B4FF0000E002C1CBF0021A162816B66
:1017700000291CBF00228A620268002C136823F42F
:1017800080631360A0F82AE018BFC4F834E0002991
:101790001CBF00234B63116821F00101116090F818
:1017A0003D1060290CD1202180F83D10002180F8E7
:1017B0003E10016401B0BDE81040FEF70BBF00BF52
:1017C0000CF02801282911D1116841F001011160A4
:1017D000116841F48061116000210163282180F8C3
:1017E0003D1001B0BDE81040FFF728BA202180F875
:1017F0003D10002180F83E1001B0BDE81040FFF719
:101800001DBA000010B5044690F83D1090F83E0057
:10181000B0F1100218BF0122403818BF0120024267
:1018200008BF222934D001F0280028283AD100200E
:101830002063282084F83D0020684168090542D5CE
:10184000416821F400614160606B90F8211001292A
:1018500058D1A06B41F2E161C0F600014163FEF78F
:1018600029FD002861D020684169490606D5006934
:10187000616A0870616A206801316162016821F063
:1018800001010160202084F83D00A06B4BE000BF07
:101890002068026822F4006202604268120505D5E1
:1018A0000CE000BF20684268120507D4602905D00B
:1018B000202184F83D10002184F83E10002121638E
:1018C00041680905BCD494F83D10602950D120210D
:1018D00084F83D10002121644169490606D500695C
:1018E000616A0870616A206801316162016821F0F3
:1018F000010101602046FEF76DFE206C000717D144
:101900001BE000BF41F2E161C0F600014163FEF758
:10191000D1FC50B12168606B0A6822F001020A60B4
:10192000202184F83D10416B8847206C000704D0CB
:101930002068416821F4E061416094F83D00216C29
:10194000490758BF10BD282810D10020CFF6FF70DE
:10195000E06200212020216384F83D00204684F8C5
:101960003E10BDE81040FFF727BA00BF10BD00BF12
:101970004169490605D50069616A0870606A0130ED
:1019800060622046FFF75AF9206C0007D0D1D4E7F7
:10199000C16A428D042A07D10168426A4B6823F468
:1019A00080634B60096911E0428D032A16D10268F9
:1019B0000229536823F48063536005D0042903D0BF
:1019C000116821F4806111601169426A1170416AE5
:1019D00001314162418D013941857047428D022AB2
:1019E00012D14A1E0F2A19D8DFE802F00812181285
:1019F00018181818181818181818180802681368F2
:101A000023F480630EE000BF0168426ACAE700BFAA
:101A10000268136843F4806304E000BF026813683F
:101A200043F4007313601269436A1A70426AD0F873
:101A300000C0531C4362438D013B4385DCF81030EA
:101A40005370426A036801324262428D013A428514
:101A50005A6822F440725A60202280F83D2090F8A3
:101A60003E300022402B80F83E2003D10263FFF776
:101A7000A9B900BFB1F1080218BF1222203918BF5E
:101A800011460163FFF79AB981B090F83D10222901
:101A900079D1C16A428D042A14D30168426A096966
:101AA0001170416A01314162418D01394185418D99
:101AB000032968D10068416821F48061416001B068
:101AC000704700BFC36A022B58D0012A56D80022A3
:101AD000009240F21002C2F2000212684BF28953E7
:101AE000D208C1F2F843A2FB03231A0A02EB8202D6
:101AF0000092009A013A0092009A002A46D00268A9
:101B000013689B051AD5009A013A0092009AEAB32D
:101B1000026813689B0511D5009A013A0092009A59
:101B2000A2B3026813689B0508D5009A013A009297
:101B3000009A5AB3026813689B05DAD4136823F439
:101B400080631360536823F4E06353601269436A4F
:101B50001A70426A01324262428D013A4285202265
:101B600080F83D2090F83E300022402B80F83E2047
:101B700028D1026301B0FFF725B900BF00684168B2
:101B800021F48061416001B0704700BF016C41F0F9
:101B9000200101640168426A4B6823F4E0634B60F2
:101BA00009691170416A01314162418D01394185F4
:101BB000202180F83D10002180F83E1001B0FFF791
:101BC0003DB800BFB1F1080218BF1222203918BF7A
:101BD0001146016301B0FFF7F1B80000C16A90F847
:101BE0003D20212A18BF7047428D4AB1416A0268E0
:101BF00011F8013B13614162418D01394185704704
:101C000011F5803F18BF082918D101684A6822F4ED
:101C1000E0624A600A6842F400720A6000212022F1
:101C2000016380F83D2090F83E2080F83E10402A65
:101C300008BFFFF7C9B8FFF7C3B800BF2029E4D039
:101C400001684A6822F4E0624A60112101630021C0
:101C500080F83E10202180F83D10FFF7B1B8000059
:101C600090F83D1090F83EC0C26A038D002B08BF6B
:101C7000212919D0212905D0BCF1400F08BF222904
:101C800000D07047418D69B390F83E10402908BFDD
:101C900000F040B8416A026811F8013B13614162EB
:101CA000418D01394185704712F5803F18BF082AE0
:101CB0001ED101684A6822F4E0624A600A6842F470
:101CC00000720A6000212022016380F83D2090F814
:101CD0003E2080F83E10402A08BFFFF775B8FFF796
:101CE0006FB800BF0068416821F4806141607047AF
:101CF000202ADED001684A6822F4E0624A6011219D
:101D00000163002180F83E10202180F83D10FFF78C
:101D100057B8000090F83D10026D5AB1026D012ACB
:101D200014D10168826CD2B20A61016D0131016582
:101D3000704700BFC26C816C012A15D10268C9B21C
:101D40001161016D02310165704700BF026D022A09
:101D500012D1222918D101680A6842F480720A60FF
:101D6000016D0131016570470268C1F307211161FE
:101D7000016D01310165704700684169090644BF82
:101D800000210161704700BF428D5AB1212909D15C
:101D9000416A026811F8013B13614162418D0139CA
:101DA00041857047428D002A08BF2129EAD1016888
:101DB0004A6822F4E0624A600A6842F400720A60EB
:101DC00000212022016380F83D2080F83E10FEF7BC
:101DD000FBBF00002DE9F04383B0044600680D46C8
:101DE00001680A9F0B9E41F48071994690460160FC
:101DF00020464FF0011100223B46009600F0AEF85D
:101E000050B120680068C00544BF4FF400702064E2
:101E1000032003B0BDE8F083206805F0FE010161F6
:101E20000221C0F2010120463A46334600F080F913
:101E300020B1012003B0BDE8F08300BF0020029074
:101E400020683246416902918069394602900298C1
:101E5000204600F0DDF958B1206C0428E9D1206853
:101E6000016841F400710160012003B0BDE8F08316
:101E7000B9F1010F0AD020684FEA1821016120460C
:101E80003946324600F0C4F90028E5D120685FFAEF
:101E900088F10161002003B0BDE8F08370B50368EC
:101EA000044653F8140F400711D40E46481C29D09D
:101EB00086BB00BF1868400527D4FEF785FB236862
:101EC00053F8140F400739D518684007F2D50020A1
:101ED00070BD00BF18684007F9D41868400514D4D5
:101EE00018684007F3D4186840050ED418684007F6
:101EF000EDD41868400508D4186840074FF000007A
:101F000048BF70BD18684005E4D56FF48060186064
:101F1000042014E0154603E053F8140F4007D6D40C
:101F200018684005F1D4FEF74FFB401B2368B04210
:101F3000F2D958694007EFD4202000E0202000218A
:101F40002022216384F83D2084F83E10226C104347
:101F50002064012084F83C1070BD00002DE9F041A0
:101F6000054600681E46144601F47F0201338FB215
:101F700042D0DDF81880B2F5803F40F0878040699C
:101F80003840C01BB0FA80F04009A04240F0C88041
:101F90004EB924E040693840C01BB0FA80F04009D7
:101FA000A04240F0BD80FEF70FFBA0EB08012868BF
:101FB000B142EFD941693940C91BB1FA81F14909F0
:101FC000A142E7D19BE000BF40693840C01BB0FA96
:101FD00080F04009A0424FF0000040F0A680FEF7DC
:101FE000F3FA286841693940C91BB1FA81F14909FE
:101FF000A142E9D183E000BFB2F5803F24D100BF08
:1020000041693940C91BB1FA81F14909A14240F047
:10201000878041693940C91BB1FA81F14909A14260
:1020200040F07E8041693940C91BB1FA81F149090C
:10203000A14275D141693940C91BB1FA81F1490901
:10204000A142DDD06CE000BF81693940C91BB1FA03
:1020500081F14909A14263D181693940C91BB1FAB3
:1020600081F14909A1425BD181693940C91BB1FAAB
:1020700081F14909A14253D181693940C91BB1FAA3
:1020800081F14909A142DFD04AE000BF80693840B0
:10209000C01BB0FA80F04009A04241D146B923E00C
:1020A00080693840C01BB0FA80F04009A0423BD1A3
:1020B000FEF78AFAA0EB08012868B142F0D98169DD
:1020C0003940C91BB1FA81F14909A142E8D116E0B2
:1020D00080693840C01BB0FA80F04009A0424FF040
:1020E000000018BFBDE8F081FEF76EFA286881692C
:1020F0003940C91BB1FA81F14909A142E8D1002058
:102100002021286385F83D1085F83E00296C41F0B8
:102110002001296485F83C000120BDE8F08100BF62
:102120000020BDE8F08100BF0020BDE8F081000084
:10213000F0B581B0044600681D4643698FB203EADA
:102140000701B94202D1002001B0F0BD4169164635
:10215000013201F4806125D0002940D1CEB100BF09
:10216000FEF732FA411B2068B14203D94169394078
:10217000B9424BD141693940B942E4D0416949057E
:10218000EED52CE041693940B942DCD041694905BE
:1021900025D4FEF719FA206841693940B942F1D0D7
:1021A000202024E0D9B941693940B942CBD04169F6
:1021B000490514D441693940B942C4D0416949053F
:1021C0000DD441693940B942BDD04169490506D4B1
:1021D00041693940B942B6D041694905E3D5016842
:1021E00041F4007101606FF48061416104200021BD
:1021F0002022216384F83D2084F83E10226C104395
:10220000206484F83C10012001B0F0BD2020EEE7EE
:1022100070B50368044653F8140F000611D40E4637
:10222000481C29D086BB00BF1868400527D4FEF79C
:10223000CBF9236853F8140F000639D51868000647
:10224000F2D5002070BD00BF18680006F9D41868E8
:10225000400514D418680006F3D4186840050ED45D
:1022600018680006EDD41868400508D41868000600
:102270004FF0000048BF70BD18684005E4D56FF40A
:1022800080601860042014E0154603E053F8140F32
:102290000006D6D418684005F1D4FEF795F9401B26
:1022A0002368B042F2D958690006EFD4202000E03C
:1022B000202000212022216384F83D2084F83E1054
:1022C000226C10432064012084F83C1070BD000093
:1022D00070B584B041F21800C4F20200016841F206
:1022E000000441F0100101600168C4F2010401F032
:1022F0001001009100990168002241F02001016065
:1023000001684FF4005501F0200100910099016827
:10231000002641F004010160016801F00401009110
:102320000099016841F00801016000684FF4005114
:1023300000F00800009000982046FEF73FF90120C9
:10234000CDE9010602200390694620460095FEF77C
:1023500023F804B070BD000080B540F2804045F223
:102360000041C2F20000C4F2000141F680220023C5
:102370004FF4804CC0F2060280E80E00C0E9033C36
:10238000C0E90533C0E90733FEF75AFC002808BF4F
:1023900080BDBDE88040FDF787BF0000FEE700007C
:1023A000FEE700007047000070470000FEF7F8BD30
:1023B00070470000FEE7000090B0FEF7FFFD00242C
:1023C0000120CDE90B44CDE9094406900A904FF471
:1023D000E0104FF4803102250F9006A8CDE90714D4
:1023E000CDE90D51FEF784FF20B1EFF3108072B6F6
:1023F000FEE700BF0F20CDE901054FF48060CDE975
:10240000040401A802210394FEF77EFE20B1EFF33D
:10241000108072B6FEE700BFFFF75AFFFFF79CFF80
:1024200040F28040C2F2000000F0D4F920B1EFF396
:10243000108072B6FEE700BF4FF47A70FDF798FF88
:102440000020002500F0B8F940F28040C2F2000000
:1024500000F074FB4FF47A70FDF78AFF0020002132
:1024600000F064FB40F20804C2F20004D4E9001258
:10247000B7A0012300F01EFD0020242100F056FB30
:10248000D4E90012B4A0012300F014FDECB26420E2
:102490002146012200F064F93F2C05F10105F5D336
:1024A000002500BFECB265202146012200F058F95A
:1024B0003F2C05F10105F5D3002500BFECB26620E5
:1024C0002146012200F04CF93F2C05F10105F5D31E
:1024D000002500BFECB267202146012200F040F940
:1024E0003F2C05F10105F5D3002500BFECB26820B3
:1024F0002146012200F034F93F2C05F10105F5D306
:10250000002500BFECB269202146012200F028F925
:102510003F2C05F10105F5D3002500BFECB26A2080
:102520002146012200F01CF93F2C05F10105F5D3ED
:10253000002500BFECB26B202146012200F010F90B
:102540003F2C05F10105F5D3002500BFECB26C204E
:102550002146012200F004F93F2C05F10105F5D3D5
:10256000002500BFECB26D202146012200F0F8F8F2
:102570003F2C05F10105F5D3002500BFECB26E201C
:102580002146012200F0ECF83F2C05F10105F5D3BE
:10259000002500BFECB26F202146012200F0E0F8D8
:1025A0003F2C05F10105F5D3002500BFECB27020EA
:1025B0002146012200F0D4F83F2C05F10105F5D3A6
:1025C000002500BFECB271202146012200F0C8F8BE
:1025D0003F2C05F10105F5D3002500BFECB27220B8
:1025E0002146012200F0BCF83F2C05F10105F5D38E
:1025F000002500BFECB273202146012200F0B0F8A4
:102600003F2C05F10105F5D3002500BFECB2742085
:102610002146012200F0A4F83F2C05F10105F5D375
:10262000002500BFECB275202146012200F098F889
:102630003F2C05F10105F5D3002500BFECB2762053
:102640002146012200F08CF83F2C05F10105F5D35D
:10265000002500BFECB277202146012200F080F86F
:102660003F2C05F10105F5D3002500BFECB2782021
:102670002146012200F074F83F2C05F10105F5D345
:10268000002500BFECB279202146012200F068F855
:102690003F2C05F10105F5D3002500BFECB27A20EF
:1026A0002146012200F05CF83F2C05F10105F5D32D
:1026B000002500BFECB27B202146012200F050F83B
:1026C0003F2C05F10105F5D3002500BFECB27C20BD
:1026D0002146012200F044F83F2C05F10105F5D315
:1026E000002500BFECB27D202146012200F038F821
:1026F0003F2C05F10105F5D3002500BFECB27E208B
:102700002146012200F02CF83F2C05F10105F5D3FC
:10271000002500BFECB27F202146012200F020F806
:102720003F2C05F10105F5D340F28040C2F20000D4
:1027300000F004FA41F20004C4F201044FF4FA700C
:10274000FDF716FE20464FF40051FDF72FFFF5E789
:10275000737364313330360034696C6F00000000ED
:1027600043B2002B26D43F2988BF704740F278033C
:10277000C2F200031B78B2FA82FC002B01F00703BF
:1027800001F0F80118BF4FEA5C124FF0010C00EBAA
:10279000011040F28001012A0CFA03F2C2F200019A
:1027A00004D10B5C1A430A54704700BF0B5C23EA48
:1027B00002020A547047000080B50246002840F229
:1027C0008000C2F200004FF4806118BFFF22FDF7C5
:1027D000FBFC80BD2DE9F04F85B004466420FDF779
:1027E000C7FDAE208DF813004FF00A0901250DF149
:1027F00013072046782100220123CDE90075CDF88A
:1028000008904FF00008FEF7E1FA06464FF0200A64
:1028100020467821002201238DF813A0CDE9007510
:10282000CDF80890FEF7D2FA06444FF0100B204680
:102830007821002201238DF813B0CDE90075CDF881
:102840000890FEF7C3FA0644B0208DF81300204626
:10285000782100220123CDE90075CDF80890FEF71C
:10286000B5FA0644C8208DF81300204678210022CE
:102870000123CDE90075CDF80890FEF7A7FA0644CC
:1028800020467821002201238DF81380CDE90075C0
:10289000CDF80890FEF79AFA0644204678210022E7
:1028A00001238DF813B0CDE90075CDF80890FEF73F
:1028B0008DFA064440208DF813002046782100222E
:1028C0000123CDE90075CDF80890FEF77FFA0644A4
:1028D00081208DF813002046782100220123CDE9C4
:1028E0000075CDF80890FEF771FA0644FF208DF8C8
:1028F00013002046782100220123CDE90075CDF890
:102900000890FEF763FA0644A1208DF813002046D4
:10291000782100220123CDE90075CDF80890FEF75B
:1029200055FA0644A6208DF813002046782100228F
:102930000123CDE90075CDF80890FEF747FA06446B
:10294000A8208DF813002046782100220123CDE92C
:102950000075CDF80890FEF739FA06443F208DF84F
:1029600013002046782100220123CDE90075CDF81F
:102970000890FEF72BFA0644A4208DF81300204699
:10298000782100220123CDE90075CDF80890FEF7EB
:102990001DFA0644D3208DF813002046782100222A
:1029A0000123CDE90075CDF80890FEF70FFA064433
:1029B00020467821002201238DF81380CDE900758F
:1029C000CDF80890FEF702FA0644D5208DF81300E2
:1029D0002046782100220123CDE90075CDF808902A
:1029E000FEF7F4F90644F0208DF813002046782114
:1029F00000220123CDE90075CDF80890FEF7E6F935
:102A00000644D9208DF813002046782100220123A6
:102A1000CDE90075CDF80890FEF7D8F906442220DC
:102A20008DF813002046782100220123CDE900759E
:102A3000CDF80890FEF7CAF90644DA208DF81300A5
:102A40002046782100220123CDE90075CDF80890B9
:102A5000FEF7BCF9064412208DF8130020467821B9
:102A600000220123CDE90075CDF80890FEF7AEF9FC
:102A70000644DB208DF81300204678210022012334
:102A8000CDE90075CDF80890FEF7A0F90644204680
:102A90007821002201238DF813A0CDE90075CDF82F
:102AA0000890FEF793F906448D208DF81300204618
:102AB000782100220123CDE90075CDF80890FEF7BA
:102AC00085F9064414208DF8130020467821002251
:102AD0000123CDE90075CDF80890FEF777F906449B
:102AE000AF208DF813002046782100220123CDE984
:102AF0000075CDF80890FEF769F9C64211D140F291
:102B00008000C2F200004FF48061FDF765FB2046B3
:102B100000F014F840F27800C2F200000025C0F87E
:102B20000280284605B0BDE8F08F000040F2780230
:102B3000C2F2000250809180704700002DE9F04FF2
:102B400085B040F280060446C2F200060A2701253D
:102B50000DF113084FF064094FF0800A4FF0000B9D
:102B6000ABF150008DF811000DF11100CDE9000519
:102B700020467821002201230297FEF727F9002042
:102B80008DF812000DF11200CDE9000520467821E4
:102B9000002201230297FEF719F910208DF8130087
:102BA0002046782100220123CDE900850297FEF717
:102BB0000DF92046782140220123CDE9006ACDF8A5
:102BC0000890FEF703F90BF1010BBBF1080F06F1BA
:102BD0008006C5D105B0BDE8F08F00002DE9F04FAB
:102BE0008BB040F27806C2F2000675885FFA81FC6D
:102BF0000CEB05047F2C06D8B788C1F3072E089785
:102C000077443F2F04D900200BB0BDE8F08F00BF00
:102C1000CDE900403078B3FA83F700284FEA571720
:102C20001CBF3B460120BEF1000F18BFBCF1000FD6
:102C30000AD140F278000099C2F200004180019868
:102C40000BB0BDE8F08F00BF019E78400990ACF159
:102C500001000292203E049001F003000EFB06F2F8
:102C6000029E0690ACEB000040F2800C0592002220
:102C7000C2F2000C0A90CDF81CE008E041EA0E0117
:102C80000CF80010DDF81CE001327245D1D0089834
:102C90001044C1B23F29F5D805990127114436F8EF
:102CA00011A000F0070107FA01FE04998EF0FF0859
:102CB00003294FF4786101EA001905D20020069932
:102CC000002940F08E80DDE70392002208E000BF7B
:102CD00041EA0E010CF802100A99721C8A4279D05E
:102CE00010460AFA00F12A440904D6B202F0800123
:102CF00008D591B94E441CF80670012B09D147EA5A
:102D00000E0108E049B94E4409991CF806700029E3
:102D1000F5D107EA08010CF8061000F1010B511C6F
:102D20000AFA0BF7CEB23F0401F0800108D591B941
:102D30004E441CF80670012B09D147EA0E0108E049
:102D400049B94E4409991CF806700029F5D107EAE3
:102D500008010CF806100BF10106911C0AFA06F4A2
:102D6000CFB2240401F0800108D591B94F441CF87A
:102D70000710012B09D141EA0E0108E049B94F447F
:102D8000099C1CF80710002CF5D101EA08010CF889
:102D900007100136D11C0AFA06F4CAB2240401F065
:102DA000800109D500297FF497AF4A441CF802102E
:102DB000012B3FF48DAF09E000297FF48DAF4A4429
:102DC000099C1CF80210002C7FF482AF01EA080174
:102DD00080E700BFDDE902620430069900293FF474
:102DE00051AF41190AFA00F41746CAB2240401F09F
:102DF000800109D599B94A441CF80210012B0AD167
:102E000041EA0E0109E000BF49B94A44099C1CF897
:102E10000210002CF4D101EA08010CF80210069906
:102E20003A4601293FF42EAF411C4C190AFA01F130
:102E30000904E2B204F0800108D591B94A441CF8B3
:102E40000210012B09D141EA0E0108E049B94A44B8
:102E5000099C1CF80210002CF5D101EA08010CF8BD
:102E6000021006993A4602293FF40CAF811C4A1918
:102E70000AFA01F10904D0B202F080010AD5002952
:102E80003A467FF4FFAE48441CF80010012B3FF493
:102E9000F5AE0BE000293A467FF4F4AE4844099AB7
:102EA0001CF80010002A3A467FF4E8AE01EA080157
:102EB000E6E60000F0B581B01C460378A3B11546E4
:102EC0000E46471CD8B231462A462346FFF786FEF7
:102ED00017F8011C884204D117F8013B002BF1D1EF
:102EE0000021084601B0F0BD0021084601B0F0BD48
:102EF00000000000000000000102030406070809AA
:102F000000000000010203040000000000000000B7
:102F100000000000000000000000000000000000B1
:102F20000000000000000000000000000000000C95
:102F3000000C000C000C000C000C000C000C000C31
:102F4000000C000C0000000C000C00000000000051
:102F50000000001B001B001B001B001B00000000EA
:102F60000000000000000000000000000000000061
:102F70000000000000008019801980198019C07FAE
:102F8000C07F80190033C07FC07F0033003300331F
:102F900000330000000000000000001E003F8075AC
:102FA00080650074003C001E000780058065806518
:102FB0008075003F001E0004000400000000007047
:102FC00000D840D8C0D880D900730006000C801B00
:102FD000C036C066C046C006800300000000000086
:102FE0000000001E003F003300330033001E000CC1
:102FF000C03CC066806380618063C03E801C00006E
:10300000000000000000000C000C000C000C000C84
:1030100000000000000000000000000000000000B0
:103020000000000000000000800000010003000616
:1030300000060004000C000C000C000C000C000C3E
:1030400000040006000600030001800000200010BC
:103050000018000C000C0004000600060006000624
:10306000000600060004000C000C001800100020F0
:103070000000000C002D003F001E00330000000087
:103080000000000000000000000000000000000040
:1030900000000000000000000000000C000C000C0C
:1030A000000CC0FFC0FF000C000C000C000C000066
:1030B0000000000000000000000000000000000010
:1030C0000000000000000000000000000000000000
:1030D0000000000C000C00040004000800000000C8
:1030E0000000000000000000000000000000001EC2
:1030F000001E0000000000000000000000000000B2
:1031000000000000000000000000000000000000BF
:1031100000000000000000000000000C000C000097
:10312000000000000000000300030003000600068A
:1031300000060006000C000C000C000C0018001823
:1031400000180000000000000000001E003F0033D7
:10315000806180618061806D806D8061806180614F
:103160000033003F001E00000000000000000006C9
:10317000000E001E003600260006000600060006AF
:103180000006000600060006000600000000000021
:103190000000001E003F8073806180618001000399
:1031A0000006000C001800300060807F807F000067
:1031B000000000000000001C003E006300630003EC
:1031C000000E000E00038001800180618073003FCB
:1031D000001E00000000000000000006000E000EAF
:1031E000001E001E0016003600360066807F807FBD
:1031F0000006000600060000000000000000007F3E
:10320000007F006000600060006E007F80638001CE
:10321000800180618073003F001E000000000000FC
:103220000000001E003F803380610060006E007F60
:1032300080738061806180618033003F001E0000E8
:10324000000000000000807F807F800100030003F9
:1032500000060006000C000C000C00080018001806
:1032600000180000000000000000001E003F806306
:10327000806180610021001E003F8061806180616B
:103280008061003F001E0000000000000000001EE2
:10329000003F00738061806180618073803F801D8A
:1032A000800180610073003F001E000000000000EC
:1032B00000000000000000000000000C000C0000F6
:1032C00000000000000000000000000C000C0000E6
:1032D00000000000000000000000000000000000EE
:1032E000000C000C00000000000000000000000CBA
:1032F000000C0004000400080000000000000000B2
:1033000080008003000E003800600038000E80034B
:10331000800000000000000000000000000000002D
:10332000000000000000807F807F00000000807FA0
:10333000807F00000000000000000000000000008E
:10334000000000000000000000400070001C0007AA
:1033500080010007001C0070004000000000000019
:10336000000000000000001F803FC071C060C0006E
:10337000C00180030007000E000C000C0000000CD0
:10338000000C0000000000000000001E003F803123
:1033900080718063806F806D806D806F806700605A
:1033A0000032003E001C0000000000000000000E83
:1033B000000E001B001B001B001B80318031803F72
:1033C000803F8031C060C060C0600000000000002D
:1033D0000000007C007E0063006300630063007EE9
:1033E000007E0063806180618063007F007E00005A
:1033F000000000000000001E003F8031806100607E
:103400000060006000600060006080618031003F0B
:10341000001E0000000000000000007C007F006330
:103420008063806180618061806180618061006310
:103430000063007E007C0000000000000000807F30
:10344000807F0060006000600060007F007F00609F
:10345000006000600060807F807F0000000000004E
:103460000000807F807F0060006000600060007F5F
:10347000007F00600060006000600060006000008D
:10348000000000000000001E003F803180610060ED
:103490000060006080638063806180618031803F74
:1034A000001E00000000000000008061806180615B
:1034B000806180618061807F807F806180618061C8
:1034C0008061806180610000000000000000003F1A
:1034D000003F000C000C000C000C000C000C000C59
:1034E000000C000C000C003F003F0000000000003A
:1034F0000000800180018001800180018001800145
:1035000080018001806180618073003F001E0000A7
:10351000000000000000C06080610063006600667B
:10352000006C0078007C006600660063806180614A
:10353000C06000000000000000000060006000604B
:10354000006000600060006000600060006000607B
:103550000060807F807F0000000000000000C071DC
:10356000C071C07BC07AC06AC06AC06EC064C060EF
:10357000C060C060C060C060C060000000000000AB
:10358000000080718071807980798079806D806D94
:10359000806D8065806780678067806380630000DE
:1035A000000000000000001E003F003380618061C9
:1035B0008061806180618061806180610033003F53
:1035C000001E0000000000000000007E007F8063FD
:1035D0008061806180618063007F007E00600060A8
:1035E0000060006000600000000000000000001E9D
:1035F000003F003380618061806180618061806113
:10360000806580670033803F401E0000000000009E
:103610000000007E007F8063806180618063007FA6
:10362000007E00660063006380618061C06000000E
:10363000000000000000000E001F803180310030CB
:103640000038001E00078003806180618031003FE8
:10365000001E0000000000000000C0FFC0FF000CC2
:10366000000C000C000C000C000C000C000C000CFA
:10367000000C000C000C0000000000000000806145
:103680008061806180618061806180618061806132
:10369000806180618073003F001E00000000000018
:1036A0000000C060C060C060803180318031001B8C
:1036B000001B001B001B000E000E000E000400008B
:1036C000000000000000C0C0C0C0C0C0C0C0C0C07A
:1036D000C0CC804C804C805E805280528073806170
:1036E00080610000000000000000C0C080608061B8
:1036F0000033003B001E000C000C001E001F003BAE
:1037000080718061C0C00000000000000000C0C0E7
:103710008061806100330033001E001E000C000C2D
:10372000000C000C000C000C000C0000000000005D
:103730000000803F803F8001000300030006000C72
:10374000000C0018001800300060807F807F0000AF
:1037500000000000000F000F000C000C000C000C1B
:10376000000C000C000C000C000C000C000C000CF9
:10377000000C000C000F000F0000001800180018CB
:10378000000C000C000C000C0006000600060006F1
:10379000000300030003000000000000001E001EE4
:1037A00000060006000600060006000600060006E9
:1037B000000600060006000600060006001E001EA9
:1037C0000000000C000C001E00120033003380616A
:1037D0008061000000000000000000000000000008
:1037E00000000000000000000000000000000000D9
:1037F00000000000000000000000000000000000C9
:1038000000000000E0FF0000000000380018000C7D
:1038100000000000000000000000000000000000A8
:103820000000000000000000000000000000000098
:10383000000000000000001F803F80618001801FA9
:10384000803F80618063807FC038000000000000FE
:1038500000000060006000600060006E007F807308
:1038600080618061806180618073007F006E0000F4
:103870000000000000000000000000000000001E2A
:10388000003F807380610060006080618073003F52
:10389000001E000000000000000080018001800187
:1038A0008001801D803F80738061806180618061C4
:1038B0008073803F801D00000000000000000000B9
:1038C000000000000000001E003F00738061807F48
:1038D000807F00608071003F001E0000000000003B
:1038E0000000C007C00F000C000C807F807F000C20
:1038F000000C000C000C000C000C000C000C000074
:10390000000000000000000000000000801D803F5B
:10391000807380618061806180618073803F801DE1
:1039200080018063007F003E000000600060006056
:103930000060006F807F8071806180618061806144
:1039400080618061806100000000000000000006CE
:10395000000600000000003E003E000600060006D3
:103960000006000600060006000600000000000039
:103970000006000600000000003E003E00060006B3
:1039800000060006000600060006000600060046C7
:10399000007E003C0000006000600060006080610C
:1039A00000630066006C007C007600630063806149
:1039B000C0600000000000000000003E003E000665
:1039C00000060006000600060006000600060006C7
:1039D00000060006000600000000000000000000D5
:1039E00000000000000080DDC0FFC0CEC0CCC0CC15
:1039F000C0CCC0CCC0CCC0CCC0CC0000000000000B
:103A000000000000000000000000006F807F807157
:103A1000806180618061806180618061806100007F
:103A20000000000000000000000000000000001E78
:103A3000003F807380618061806180618073003F9E
:103A4000001E000000000000000000000000000058
:103A5000006E007F8073806180618061806180730F
:103A6000007F006E006000600060006000000000E9
:103A700000000000801D803F807380618061806154
:103A800080618073803F801D800180018001800102
:103A9000000000000000000000000067803F0039C7
:103AA00000300030003000300030003000300000C6
:103AB0000000000000000000000000000000001EE8
:103AC000803F80610060007F803F80018061007FD7
:103AD000001E0000000000000000000000080018A8
:103AE0000018007F007F0018001800180018001848
:103AF0000018801F800F0000000000000000000080
:103B00000000000000008061806180618061806150
:103B1000806180618063807F803D00000000000044
:103B200000000000000000000000C0608031803113
:103B30008031001B001B001B000E000E0006000061
:103B4000000000000000000000000000000080DD18
:103B500080DD80DD0055005500550077007700229C
:103B60000022000000000000000000000000000033
:103B70000000806100330033001E000C000C001EAA
:103B800000330033806100000000000000000000EE
:103B90000000000080618061803100330033001B31
:103BA000001B001B000E000E000E001C007C0070AD
:103BB00000000000000000000000C07FC07F800106
:103BC00000030006000C00180030C07FC07F00001A
:103BD00000000000800380070006000600060006C3
:103BE0000006000E001C001C000E00060006000669
:103BF0000006000680078003000600060006000697
:103C00000006000600060006000600060006000684
:103C10000006000600060006000600060038003C0C
:103C2000000C000C000C000C000C000E000700073C
:103C3000000E000C000C000C000C000C003C0038C6
:103C400000000000000000000000000000008038BC
:103C5000807F00470000000000000000000000001E
:103C600000000000010202030405060708090A0B10
:103C70000C0D0E0F10100000983C000800000020F2
:103C80001800000028010008B03C000818000020BF
:103C9000C00A0000440100080100000010000000FC
:103CA0000B120000082F000800127A00000000002C
:04000005080000ED02
:00000001FF
